{
  "contractName": "Block4Health",
  "abi": [
    {
      "inputs": [
        {
          "internalType": "address",
          "name": "",
          "type": "address"
        }
      ],
      "name": "EHR_Store",
      "outputs": [
        {
          "internalType": "string",
          "name": "DoctorReport",
          "type": "string"
        }
      ],
      "stateMutability": "view",
      "type": "function"
    },
    {
      "inputs": [
        {
          "internalType": "address",
          "name": "",
          "type": "address"
        },
        {
          "internalType": "uint256",
          "name": "",
          "type": "uint256"
        }
      ],
      "name": "EHR_Store_Access",
      "outputs": [
        {
          "internalType": "address",
          "name": "",
          "type": "address"
        }
      ],
      "stateMutability": "view",
      "type": "function"
    },
    {
      "inputs": [
        {
          "internalType": "uint256",
          "name": "",
          "type": "uint256"
        },
        {
          "internalType": "uint256",
          "name": "",
          "type": "uint256"
        }
      ],
      "name": "Hospital_Doctor",
      "outputs": [
        {
          "internalType": "string",
          "name": "Doctor_Hash",
          "type": "string"
        },
        {
          "internalType": "uint256",
          "name": "Hospital_id",
          "type": "uint256"
        }
      ],
      "stateMutability": "view",
      "type": "function"
    },
    {
      "inputs": [
        {
          "internalType": "uint256",
          "name": "",
          "type": "uint256"
        }
      ],
      "name": "Hospital_map",
      "outputs": [
        {
          "internalType": "address",
          "name": "Hospital_id",
          "type": "address"
        },
        {
          "internalType": "string",
          "name": "Hospital_hash_record",
          "type": "string"
        }
      ],
      "stateMutability": "view",
      "type": "function"
    },
    {
      "inputs": [
        {
          "internalType": "address",
          "name": "",
          "type": "address"
        }
      ],
      "name": "Patient_map",
      "outputs": [
        {
          "internalType": "address",
          "name": "PatientID",
          "type": "address"
        },
        {
          "internalType": "string",
          "name": "Hashrecord",
          "type": "string"
        }
      ],
      "stateMutability": "view",
      "type": "function"
    },
    {
      "inputs": [
        {
          "internalType": "uint256",
          "name": "id",
          "type": "uint256"
        }
      ],
      "name": "All_Hospital",
      "outputs": [
        {
          "components": [
            {
              "internalType": "string",
              "name": "Doctor_Hash",
              "type": "string"
            },
            {
              "internalType": "uint256",
              "name": "Hospital_id",
              "type": "uint256"
            }
          ],
          "internalType": "struct Block4Health.Registered_Doctor[]",
          "name": "",
          "type": "tuple[]"
        }
      ],
      "stateMutability": "view",
      "type": "function"
    },
    {
      "inputs": [
        {
          "internalType": "string",
          "name": "HasHrecod",
          "type": "string"
        }
      ],
      "name": "Register_patient",
      "outputs": [],
      "stateMutability": "nonpayable",
      "type": "function"
    },
    {
      "inputs": [],
      "name": "Retrieve_patient",
      "outputs": [
        {
          "components": [
            {
              "internalType": "address",
              "name": "PatientID",
              "type": "address"
            },
            {
              "internalType": "string",
              "name": "Hashrecord",
              "type": "string"
            }
          ],
          "internalType": "struct Block4Health.Patient_Info",
          "name": "",
          "type": "tuple"
        }
      ],
      "stateMutability": "view",
      "type": "function"
    },
    {
      "inputs": [
        {
          "internalType": "string",
          "name": "Hash_record",
          "type": "string"
        }
      ],
      "name": "Register_Hospital",
      "outputs": [],
      "stateMutability": "nonpayable",
      "type": "function"
    },
    {
      "inputs": [
        {
          "internalType": "uint256",
          "name": "Hospital_id",
          "type": "uint256"
        },
        {
          "internalType": "string",
          "name": "Doctor_Hash",
          "type": "string"
        }
      ],
      "name": "Insert_Doctor_Hospital",
      "outputs": [],
      "stateMutability": "nonpayable",
      "type": "function"
    },
    {
      "inputs": [
        {
          "internalType": "string",
          "name": "EHRpdf",
          "type": "string"
        },
        {
          "internalType": "address",
          "name": "patient_id",
          "type": "address"
        }
      ],
      "name": "MakeEHR",
      "outputs": [],
      "stateMutability": "nonpayable",
      "type": "function"
    },
    {
      "inputs": [
        {
          "internalType": "address",
          "name": "patient_id",
          "type": "address"
        }
      ],
      "name": "ViewEHR",
      "outputs": [
        {
          "components": [
            {
              "internalType": "string",
              "name": "DoctorReport",
              "type": "string"
            }
          ],
          "internalType": "struct Block4Health.EHR_Records",
          "name": "",
          "type": "tuple"
        }
      ],
      "stateMutability": "view",
      "type": "function"
    }
  ],
  "bytecode": "0x60806040526000805534801561001457600080fd5b50611a0a806100246000396000f3fe608060405234801561001057600080fd5b50600436106100b45760003560e01c80634a6003cc116100715780634a6003cc146101b6578063592a6d1e146101d257806370dd227e146101ee578063cbf1ff5f1461021e578063e986f4801461024e578063f04566851461027e576100b4565b806308fc9e6d146100b957806312beaef1146100e95780631f47b06c1461011a5780632886bc411461014b578063388a6b081461016957806341e6949f14610185575b600080fd5b6100d360048036038101906100ce9190611057565b61029a565b6040516100e09190611147565b60405180910390f35b61010360048036038101906100fe919061119f565b610385565b604051610111929190611238565b60405180910390f35b610134600480360381019061012f9190611268565b61044e565b6040516101429291906112a4565b60405180910390f35b61015361051a565b6040516101609190611320565b60405180910390f35b610183600480360381019061017e9190611477565b610729565b005b61019f600480360381019061019a9190611057565b610898565b6040516101ad9291906112a4565b60405180910390f35b6101d060048036038101906101cb91906114d3565b610964565b005b6101ec60048036038101906101e7919061151c565b610ae6565b005b61020860048036038101906102039190611578565b610b58565b60405161021591906115b8565b60405180910390f35b61023860048036038101906102339190611057565b610ba6565b60405161024591906115d3565b60405180910390f35b61026860048036038101906102639190611268565b610c4c565b6040516102759190611703565b60405180910390f35b610298600480360381019061029391906114d3565b610d5a565b005b6102a2610eff565b600460008373ffffffffffffffffffffffffffffffffffffffff1673ffffffffffffffffffffffffffffffffffffffff1681526020019081526020016000206040518060200160405290816000820180546102fc90611754565b80601f016020809104026020016040519081016040528092919081815260200182805461032890611754565b80156103755780601f1061034a57610100808354040283529160200191610375565b820191906000526020600020905b81548152906001019060200180831161035857829003601f168201915b5050505050815250509050919050565b600260205281600052604060002081815481106103a157600080fd5b9060005260206000209060020201600091509150508060000180546103c590611754565b80601f01602080910402602001604051908101604052809291908181526020018280546103f190611754565b801561043e5780601f106104135761010080835404028352916020019161043e565b820191906000526020600020905b81548152906001019060200180831161042157829003601f168201915b5050505050908060010154905082565b60016020528060005260406000206000915090508060000160009054906101000a900473ffffffffffffffffffffffffffffffffffffffff169080600101805461049790611754565b80601f01602080910402602001604051908101604052809291908181526020018280546104c390611754565b80156105105780601f106104e557610100808354040283529160200191610510565b820191906000526020600020905b8154815290600101906020018083116104f357829003601f168201915b5050505050905082565b610522610f12565b3373ffffffffffffffffffffffffffffffffffffffff16600360003373ffffffffffffffffffffffffffffffffffffffff1673ffffffffffffffffffffffffffffffffffffffff16815260200190815260200160002060000160009054906101000a900473ffffffffffffffffffffffffffffffffffffffff1673ffffffffffffffffffffffffffffffffffffffff16146105f2576040517f08c379a00000000000000000000000000000000000000000000000000000000081526004016105e9906117d2565b60405180910390fd5b600360003373ffffffffffffffffffffffffffffffffffffffff1673ffffffffffffffffffffffffffffffffffffffff1681526020019081526020016000206040518060400160405290816000820160009054906101000a900473ffffffffffffffffffffffffffffffffffffffff1673ffffffffffffffffffffffffffffffffffffffff1673ffffffffffffffffffffffffffffffffffffffff1681526020016001820180546106a290611754565b80601f01602080910402602001604051908101604052809291908181526020018280546106ce90611754565b801561071b5780601f106106f05761010080835404028352916020019161071b565b820191906000526020600020905b8154815290600101906020018083116106fe57829003601f168201915b505050505081525050905090565b81600060016000838152602001908152602001600020600101805461074d90611754565b80601f016020809104026020016040519081016040528092919081815260200182805461077990611754565b80156107c65780601f1061079b576101008083540402835291602001916107c6565b820191906000526020600020905b8154815290600101906020018083116107a957829003601f168201915b505050505090506000815190506000811415610817576040517f08c379a000000000000000000000000000000000000000000000000000000000815260040161080e9061183e565b60405180910390fd5b6002600086815260200190815260200160002060405180604001604052808681526020018781525090806001815401808255809150506001900390600052602060002090600202016000909190919091506000820151816000019080519060200190610884929190610f42565b506020820151816001015550505050505050565b60036020528060005260406000206000915090508060000160009054906101000a900473ffffffffffffffffffffffffffffffffffffffff16908060010180546108e190611754565b80601f016020809104026020016040519081016040528092919081815260200182805461090d90611754565b801561095a5780601f1061092f5761010080835404028352916020019161095a565b820191906000526020600020905b81548152906001019060200180831161093d57829003601f168201915b5050505050905082565b60005b6000548111610a28573373ffffffffffffffffffffffffffffffffffffffff166001600083815260200190815260200160002060000160009054906101000a900473ffffffffffffffffffffffffffffffffffffffff1673ffffffffffffffffffffffffffffffffffffffff161415610a15576040517f08c379a0000000000000000000000000000000000000000000000000000000008152600401610a0c906118d0565b60405180910390fd5b8080610a209061191f565b915050610967565b5060405180604001604052803373ffffffffffffffffffffffffffffffffffffffff1681526020018281525060016000806000815480929190610a6a9061191f565b91905055815260200190815260200160002060008201518160000160006101000a81548173ffffffffffffffffffffffffffffffffffffffff021916908373ffffffffffffffffffffffffffffffffffffffff1602179055506020820151816001019080519060200190610adf929190610f42565b5090505050565b604051806020016040528083815250600460008373ffffffffffffffffffffffffffffffffffffffff1673ffffffffffffffffffffffffffffffffffffffff1681526020019081526020016000206000820151816000019080519060200190610b50929190610f42565b509050505050565b60056020528160005260406000208181548110610b7457600080fd5b906000526020600020016000915091509054906101000a900473ffffffffffffffffffffffffffffffffffffffff1681565b6004602052806000526040600020600091509050806000018054610bc990611754565b80601f0160208091040260200160405190810160405280929190818152602001828054610bf590611754565b8015610c425780601f10610c1757610100808354040283529160200191610c42565b820191906000526020600020905b815481529060010190602001808311610c2557829003601f168201915b5050505050905081565b606060026000838152602001908152602001600020805480602002602001604051908101604052809291908181526020016000905b82821015610d4f5783829060005260206000209060020201604051806040016040529081600082018054610cb490611754565b80601f0160208091040260200160405190810160405280929190818152602001828054610ce090611754565b8015610d2d5780601f10610d0257610100808354040283529160200191610d2d565b820191906000526020600020905b815481529060010190602001808311610d1057829003601f168201915b5050505050815260200160018201548152505081526020019060010190610c81565b505050509050919050565b3373ffffffffffffffffffffffffffffffffffffffff16600360003373ffffffffffffffffffffffffffffffffffffffff1673ffffffffffffffffffffffffffffffffffffffff16815260200190815260200160002060000160009054906101000a900473ffffffffffffffffffffffffffffffffffffffff1673ffffffffffffffffffffffffffffffffffffffff161415610e2b576040517f08c379a0000000000000000000000000000000000000000000000000000000008152600401610e22906119b4565b60405180910390fd5b60405180604001604052803373ffffffffffffffffffffffffffffffffffffffff16815260200182815250600360003373ffffffffffffffffffffffffffffffffffffffff1673ffffffffffffffffffffffffffffffffffffffff16815260200190815260200160002060008201518160000160006101000a81548173ffffffffffffffffffffffffffffffffffffffff021916908373ffffffffffffffffffffffffffffffffffffffff1602179055506020820151816001019080519060200190610ef8929190610f42565b5090505050565b6040518060200160405280606081525090565b6040518060400160405280600073ffffffffffffffffffffffffffffffffffffffff168152602001606081525090565b828054610f4e90611754565b90600052602060002090601f016020900481019282610f705760008555610fb7565b82601f10610f8957805160ff1916838001178555610fb7565b82800160010185558215610fb7579182015b82811115610fb6578251825591602001919060010190610f9b565b5b509050610fc49190610fc8565b5090565b5b80821115610fe1576000816000905550600101610fc9565b5090565b6000604051905090565b600080fd5b600080fd5b600073ffffffffffffffffffffffffffffffffffffffff82169050919050565b600061102482610ff9565b9050919050565b61103481611019565b811461103f57600080fd5b50565b6000813590506110518161102b565b92915050565b60006020828403121561106d5761106c610fef565b5b600061107b84828501611042565b91505092915050565b600081519050919050565b600082825260208201905092915050565b60005b838110156110be5780820151818401526020810190506110a3565b838111156110cd576000848401525b50505050565b6000601f19601f8301169050919050565b60006110ef82611084565b6110f9818561108f565b93506111098185602086016110a0565b611112816110d3565b840191505092915050565b6000602083016000830151848203600086015261113a82826110e4565b9150508091505092915050565b60006020820190508181036000830152611161818461111d565b905092915050565b6000819050919050565b61117c81611169565b811461118757600080fd5b50565b60008135905061119981611173565b92915050565b600080604083850312156111b6576111b5610fef565b5b60006111c48582860161118a565b92505060206111d58582860161118a565b9150509250929050565b600082825260208201905092915050565b60006111fb82611084565b61120581856111df565b93506112158185602086016110a0565b61121e816110d3565b840191505092915050565b61123281611169565b82525050565b6000604082019050818103600083015261125281856111f0565b90506112616020830184611229565b9392505050565b60006020828403121561127e5761127d610fef565b5b600061128c8482850161118a565b91505092915050565b61129e81611019565b82525050565b60006040820190506112b96000830185611295565b81810360208301526112cb81846111f0565b90509392505050565b6112dd81611019565b82525050565b60006040830160008301516112fb60008601826112d4565b506020830151848203602086015261131382826110e4565b9150508091505092915050565b6000602082019050818103600083015261133a81846112e3565b905092915050565b600080fd5b600080fd5b7f4e487b7100000000000000000000000000000000000000000000000000000000600052604160045260246000fd5b611384826110d3565b810181811067ffffffffffffffff821117156113a3576113a261134c565b5b80604052505050565b60006113b6610fe5565b90506113c2828261137b565b919050565b600067ffffffffffffffff8211156113e2576113e161134c565b5b6113eb826110d3565b9050602081019050919050565b82818337600083830152505050565b600061141a611415846113c7565b6113ac565b90508281526020810184848401111561143657611435611347565b5b6114418482856113f8565b509392505050565b600082601f83011261145e5761145d611342565b5b813561146e848260208601611407565b91505092915050565b6000806040838503121561148e5761148d610fef565b5b600061149c8582860161118a565b925050602083013567ffffffffffffffff8111156114bd576114bc610ff4565b5b6114c985828601611449565b9150509250929050565b6000602082840312156114e9576114e8610fef565b5b600082013567ffffffffffffffff81111561150757611506610ff4565b5b61151384828501611449565b91505092915050565b6000806040838503121561153357611532610fef565b5b600083013567ffffffffffffffff81111561155157611550610ff4565b5b61155d85828601611449565b925050602061156e85828601611042565b9150509250929050565b6000806040838503121561158f5761158e610fef565b5b600061159d85828601611042565b92505060206115ae8582860161118a565b9150509250929050565b60006020820190506115cd6000830184611295565b92915050565b600060208201905081810360008301526115ed81846111f0565b905092915050565b600081519050919050565b600082825260208201905092915050565b6000819050602082019050919050565b61162a81611169565b82525050565b6000604083016000830151848203600086015261164d82826110e4565b91505060208301516116626020860182611621565b508091505092915050565b60006116798383611630565b905092915050565b6000602082019050919050565b6000611699826115f5565b6116a38185611600565b9350836020820285016116b585611611565b8060005b858110156116f157848403895281516116d2858261166d565b94506116dd83611681565b925060208a019950506001810190506116b9565b50829750879550505050505092915050565b6000602082019050818103600083015261171d818461168e565b905092915050565b7f4e487b7100000000000000000000000000000000000000000000000000000000600052602260045260246000fd5b6000600282049050600182168061176c57607f821691505b602082108114156117805761177f611725565b5b50919050565b7f506c7320526567697374657220796f757273656c660000000000000000000000600082015250565b60006117bc6015836111df565b91506117c782611786565b602082019050919050565b600060208201905081810360008301526117eb816117af565b9050919050565b7f596f757220486f73706974616c206973206e6f74205265676973746572000000600082015250565b6000611828601d836111df565b9150611833826117f2565b602082019050919050565b600060208201905081810360008301526118578161181b565b9050919050565b7f596f757220486f73706974616c20697320616c7265616479205265676973746560008201527f7200000000000000000000000000000000000000000000000000000000000000602082015250565b60006118ba6021836111df565b91506118c58261185e565b604082019050919050565b600060208201905081810360008301526118e9816118ad565b9050919050565b7f4e487b7100000000000000000000000000000000000000000000000000000000600052601160045260246000fd5b600061192a82611169565b91507fffffffffffffffffffffffffffffffffffffffffffffffffffffffffffffffff82141561195d5761195c6118f0565b5b600182019050919050565b7f796f752061726520616c72656164792072656769737465720000000000000000600082015250565b600061199e6018836111df565b91506119a982611968565b602082019050919050565b600060208201905081810360008301526119cd81611991565b905091905056fea264697066735822122074aab35d7997986fefd1366ad60fe2fe721724c815076d08af2ce4527f99097364736f6c63430008090033",
  "immutableReferences": {},
  "source": "// SPDX-License-Identifier: MIT\r\n\r\npragma solidity ^0.8.0;\r\ncontract Block4Health{\r\n    \r\n     uint256 Hospital=0;\r\n    struct Registered_Doctor{\r\n         string Doctor_Hash;\r\n         uint Hospital_id;\r\n         \r\n         \r\n\r\n    }\r\n    // patient Hospital Record\r\n    struct Hospital_Record{\r\n         address Hospital_id;\r\n         string Hospital_hash_record;\r\n    }\r\n\r\n    mapping(uint256=>Hospital_Record) public Hospital_map;\r\n    mapping(uint256=>Registered_Doctor []) public Hospital_Doctor;\r\n\r\n  function All_Hospital(uint256 id) public view returns(Registered_Doctor[] memory) {\r\n        return Hospital_Doctor[id];\r\n    }\r\n\r\n\r\n    // patient Patient personal Records\r\n    struct Patient_Info{\r\n         address PatientID;\r\n         string Hashrecord;\r\n    }\r\n    /// permission Granted Which Person;\r\n    // mapping(Grantedby=>GrantedTo) public Access;\r\n    struct acess{\r\n         bool View; address EHR_ID;\r\n    }\r\n//     mapping(address=>mapping(uint256=>mapping(uint256=>acess))) public Patient_Grant;\r\n    mapping(address=>Patient_Info) public Patient_map;\r\n    // patient EHR Records\r\n     struct EHR_Records{\r\n         string DoctorReport;\r\n    }\r\n//     mapping(address=>mapping(address=>EHR_Records)) public EHR_Store;\r\n//     mapping(address=>EHR_Records) public EHR_Store;\r\n//     mapping(address=> mapping(address=>EHR_Records) ) public EHR_Store_Access;\r\nmapping(address => EHR_Records) public EHR_Store;\r\nmapping(address => address[]) public EHR_Store_Access;\r\n\r\n    // Registering patient on BLock4Health\r\n      \r\n    function Register_patient(string memory HasHrecod) public  {\r\n         require(Patient_map[msg.sender].PatientID!=msg.sender,\"you are already register\");\r\n         Patient_map[msg.sender]= Patient_Info(msg.sender,HasHrecod);\r\n    }\r\n\r\n    function Retrieve_patient() external view returns(Patient_Info memory)  {\r\n        require(Patient_map[msg.sender].PatientID==msg.sender,\"Pls Register yourself\");\r\n         return Patient_map[msg.sender];\r\n\r\n    }\r\n    //modifier\r\n    /***/\r\n     modifier Hospital_Regst_or_not(uint256 Hospital_id) {\r\n      string memory name1=Hospital_map[Hospital_id].Hospital_hash_record;\r\n          uint256 bytelength = bytes(name1).length;\r\n        require(bytelength!=0,\"Your Hospital is not Register\");\r\n    _;\r\n     }\r\n     modifier on_agin_Register {\r\n        for(uint256 i=0;i<=Hospital;i++){\r\n         require(Hospital_map[i].Hospital_id!=msg.sender,\"Your Hospital is already Register\");\r\n        }\r\n    _;\r\n     }\r\n     \r\n     /***/\r\n    // Registering Hospital  on BLock4Health\r\n    function Register_Hospital(string memory Hash_record)  public on_agin_Register {\r\n        Hospital_map[Hospital++]= Hospital_Record(msg.sender,Hash_record);\r\n\r\n    }\r\n\r\n    function Insert_Doctor_Hospital(uint Hospital_id,string memory Doctor_Hash)  public Hospital_Regst_or_not(Hospital_id)  {\r\n        Hospital_Doctor[Hospital_id].push(Registered_Doctor(Doctor_Hash,Hospital_id));\r\n    }\r\n    \r\n\r\n     function MakeEHR(string memory EHRpdf,address patient_id) public{\r\n          EHR_Store[patient_id]=EHR_Records(EHRpdf);\r\n     }\r\n\r\n     // View EHR of patient\r\n     function ViewEHR(address patient_id) public view  returns(EHR_Records memory ) {\r\n          // require(Patient_map[msg.sender].PatientID==msg.sender,\"you are not register\");\r\n          return EHR_Store[patient_id];\r\n\r\n     }\r\n}",
  "sourcePath": "D:\\Blockchain\\pwskill\\truffle\\contracts\\Block4HealthContruct.sol",
  "compiler": {
    "name": "solc",
    "version": "0.8.9+commit.e5eed63a.Emscripten.clang"
  },
  "schemaVersion": "3.4.13",
  "updatedAt": "2023-03-20T19:36:14.124Z",
  "devdoc": {
    "kind": "dev",
    "methods": {},
    "version": 1
  },
  "userdoc": {
    "kind": "user",
    "methods": {},
    "version": 1
  }
}